:0300000002098A68
:0C098A00787FE4F6D8FD75810C020800AF
:0B09A2004164635F76616C75653A008C
:100800001209961209357F801208607BFF7A0979F8
:10081000A21208F01209558F0C7FC0120860AF0CAD
:100820001208C27F3A1209ADE50C75F064842430D9
:10083000FF1209ADE50C75F00A8475F00A84E5F045
:100840002430FF1209ADE50C75F00A84E5F0243080
:10085000FF1209AD7FDF1208917F4312089180B427
:10091500E4FDFCC3ED9FEC9E5015E4FBFA0BBB0018
:0F092500010ABA03F8BBE8F50DBD00010C80E430
:0109340022A0
:100935007F147E001209157F021208607F281208B5
:10094500607F0C1208607F061208607F0102086054
:100860008F08C2A0C2A1E50854F0F580D2A27F058E
:100870007E00120915C2A27F027E00120915E5084A
:10088000C454F0F580D2A27F057E00120915C2A2E1
:010890002245
:100891008F0BD2A0C2A1E50B54F0F580D2A27F0547
:1008A1007E00120915C2A27F027E00120915E50B16
:1008B100C454F0F580D2A27F057E00120915C2A2B0
:0108C1002214
:1008C2008F08E50875F064842430FF120891E5086A
:1008D20075F00A8475F00A84E5F02430FF1208915D
:0E08E200E50875F00A84E5F02430FF02089165
:1008F0008B088A09890AAB08AA09A90A120971603A
:1009000013050AE50A7002050914F9120971FF12AC
:05091000089180E222C5
:0C099600759850438920758DFDD28E228B
:0809AD008F993099FDC29922D7
:0809B5003098FDC298AF9922B1
:10095500C2A47F057E00120915D2A420A5FDC2A35D
:0B0965007F057E00120915AF90D2A3A1
:010970002264
:10097100BB010689828A83E0225002E722BBFE0284
:09098100E32289828A83E49322B7
:00000001FF
