:03000000020A1FD2
:0C0A1F00787FE4F6D8FD7581120208CD46
:0B0A37004164635F76616C75653A00F6
:1008CD00120A2B1209E37F801209417BFF7A0A7904
:1008DD003712099E7B007A0079087D051209077F82
:1008ED00C0120941AF0912089CAF0A12089CAF0B48
:0A08FD0012089CAF0C12089C80DA70
:080907008B0D8A0E890F8D1083
:10090F00120A4ABF3A2BE4F511C3E5106480F8E5EB
:10091F0011648098501B120A4AAB0DAA0EA90FE55D
:10092F0011FD3395E08D82F583EF120819051180C3
:01093F00D8DF
:010940002294
:100A0300C2A47F057E001209C3D2A420A5FDC2A300
:0B0A13007F057E001209C3AF90D2A344
:010A1E0022B5
:1009C300E4FDFCC3ED9FEC9E5015E4FBFA0BBB006A
:0F09D300010ABA03F8BBE8F50DBD00010C80E482
:0109E20022F2
:1009E3007F147E001209C37F021209417F28120976
:1009F300417F0C1209417F061209417F010209411F
:100941008F0DC2A0C2A1E50D54F0F580D2A27F05A2
:100951007E001209C3C2A27F027E001209C3E50D07
:10096100C454F0F580D2A27F057E001209C3C2A251
:010971002263
:0C089000E5128475F00A84E5F02430FFC6
:10089C008F10D2A0C2A1E51054F0F580D2A27F0532
:1008AC007E001209C3C2A27F027E001209C3E510AA
:1008BC00C454F0F580D2A27F057E001209C3C2A2F7
:0108CC002209
:100972008F127E007C037DE812083BEF2430FF12C9
:10098200089C75F06412089075F00A120890E5123E
:0C09920075F00A84E5F02430FF02089C98
:10099E008B0D8A0E890FAB0DAA0EA90F12080060DF
:1009AE0013050FE50F7002050E14F9120800FF1261
:0509BE00089C80E2220C
:0C0A2B00759850438920758DFDD28E22F5
:080A42008F993099FDC2992241
:080A4A003098FDC298AF99221B
:10080000BB010689828A83E0225002E722BBFE02F6
:09081000E32289828A83E4932229
:10081900F8BB010DE58229F582E5833AF583E8F015
:10082900225006E92582C8F622BBFE05E92582C8C1
:02083900F222A9
:10083B00BC000BBE0029EF8DF084FFADF022E4CCA1
:10084B00F875F008EF2FFFEE33FEEC33FCEE9DEC6A
:10085B00984005FCEE9DFE0FD5F0E9E4CEFD22EDB0
:10086B00F8F5F0EE8420D21CFEADF075F008EF2FFA
:10087B00FFED33FD4007985006D5F0F222C398FDEB
:05088B000FD5F0EA2288
:00000001FF
